:100000000C9434000C943E000C943E000C943E0082
:100010000C943E000C943E000C943E000C943E0068
:100020000C943E000C943E000C943E000C943E0058
:100030000C943E000C943E000C943E000C943E0048
:100040000C943E000C943E000C943E000C943E0038
:100050000C943E000C943E000C943E000C943E0028
:100060000C943E000C943E0011241FBECFEFD8E04C
:10007000DEBFCDBF0E9440000C9464000C940000D1
:1000800083E28AB920E292E081E02BB93FEF49E6B2
:1000900058E1315040405040E1F700C000009BB9AA
:1000A0003FEF49E658E1315040405040E1F700C091
:1000B00000008BB93FEF49E658E1315040405040D5
:0C00C000E1F700C00000E1CFF894FFCF92
:00000001FF
