:100000000C9434000C943E000C943E000C943E0082
:100010000C943E000C943E000C943E000C943E0068
:100020000C943E000C943E000C943E000C943E0058
:100030000C943E000C943E000C943E000C943E0048
:100040000C943E000C943E000C943E000C943E0038
:100050000C943E000C943E000C943E000C943E0028
:100060000C943E000C943E0011241FBECFEFD8E04C
:10007000DEBFCDBF0E9440000C945F000C940000D6
:1000800083E28AB91BB830E222E091E0599B05C0B7
:10009000589B03C08BB183278BB9589B03C08BB18E
:1000A00082278BB98BB189278BB94FEF59E688E14D
:1000B000415050408040E1F700C00000E7CFF89485
:0200C000FFCF70
:00000001FF
